{
  "_format": "hh-sol-artifact-1",
  "contractName": "Decentratwitter",
  "sourceName": "contracts/Decentratwitter.sol",
  "abi": [
    {
      "inputs": [],
      "stateMutability": "nonpayable",
      "type": "constructor"
    },
    {
      "anonymous": false,
      "inputs": [
        {
          "indexed": true,
          "internalType": "address",
          "name": "owner",
          "type": "address"
        },
        {
          "indexed": true,
          "internalType": "address",
          "name": "approved",
          "type": "address"
        },
        {
          "indexed": true,
          "internalType": "uint256",
          "name": "tokenId",
          "type": "uint256"
        }
      ],
      "name": "Approval",
      "type": "event"
    },
    {
      "anonymous": false,
      "inputs": [
        {
          "indexed": true,
          "internalType": "address",
          "name": "owner",
          "type": "address"
        },
        {
          "indexed": true,
          "internalType": "address",
          "name": "operator",
          "type": "address"
        },
        {
          "indexed": false,
          "internalType": "bool",
          "name": "approved",
          "type": "bool"
        }
      ],
      "name": "ApprovalForAll",
      "type": "event"
    },
    {
      "anonymous": false,
      "inputs": [
        {
          "indexed": false,
          "internalType": "uint256",
          "name": "id",
          "type": "uint256"
        },
        {
          "indexed": false,
          "internalType": "string",
          "name": "hash",
          "type": "string"
        },
        {
          "indexed": false,
          "internalType": "uint256",
          "name": "tipAmount",
          "type": "uint256"
        },
        {
          "indexed": false,
          "internalType": "address payable",
          "name": "author",
          "type": "address"
        }
      ],
      "name": "PostCreated",
      "type": "event"
    },
    {
      "anonymous": false,
      "inputs": [
        {
          "indexed": false,
          "internalType": "uint256",
          "name": "id",
          "type": "uint256"
        },
        {
          "indexed": false,
          "internalType": "string",
          "name": "hash",
          "type": "string"
        },
        {
          "indexed": false,
          "internalType": "uint256",
          "name": "tipAmount",
          "type": "uint256"
        },
        {
          "indexed": false,
          "internalType": "address payable",
          "name": "author",
          "type": "address"
        }
      ],
      "name": "PostTipped",
      "type": "event"
    },
    {
      "anonymous": false,
      "inputs": [
        {
          "indexed": true,
          "internalType": "address",
          "name": "from",
          "type": "address"
        },
        {
          "indexed": true,
          "internalType": "address",
          "name": "to",
          "type": "address"
        },
        {
          "indexed": true,
          "internalType": "uint256",
          "name": "tokenId",
          "type": "uint256"
        }
      ],
      "name": "Transfer",
      "type": "event"
    },
    {
      "inputs": [
        {
          "internalType": "address",
          "name": "to",
          "type": "address"
        },
        {
          "internalType": "uint256",
          "name": "tokenId",
          "type": "uint256"
        }
      ],
      "name": "approve",
      "outputs": [],
      "stateMutability": "nonpayable",
      "type": "function"
    },
    {
      "inputs": [
        {
          "internalType": "address",
          "name": "owner",
          "type": "address"
        }
      ],
      "name": "balanceOf",
      "outputs": [
        {
          "internalType": "uint256",
          "name": "",
          "type": "uint256"
        }
      ],
      "stateMutability": "view",
      "type": "function"
    },
    {
      "inputs": [],
      "name": "getAllPosts",
      "outputs": [
        {
          "components": [
            {
              "internalType": "uint256",
              "name": "id",
              "type": "uint256"
            },
            {
              "internalType": "string",
              "name": "hash",
              "type": "string"
            },
            {
              "internalType": "uint256",
              "name": "tipAmount",
              "type": "uint256"
            },
            {
              "internalType": "address payable",
              "name": "author",
              "type": "address"
            }
          ],
          "internalType": "struct Decentratwitter.Post[]",
          "name": "_posts",
          "type": "tuple[]"
        }
      ],
      "stateMutability": "view",
      "type": "function"
    },
    {
      "inputs": [
        {
          "internalType": "uint256",
          "name": "tokenId",
          "type": "uint256"
        }
      ],
      "name": "getApproved",
      "outputs": [
        {
          "internalType": "address",
          "name": "",
          "type": "address"
        }
      ],
      "stateMutability": "view",
      "type": "function"
    },
    {
      "inputs": [],
      "name": "getMyNfts",
      "outputs": [
        {
          "internalType": "uint256[]",
          "name": "_ids",
          "type": "uint256[]"
        }
      ],
      "stateMutability": "view",
      "type": "function"
    },
    {
      "inputs": [
        {
          "internalType": "address",
          "name": "owner",
          "type": "address"
        },
        {
          "internalType": "address",
          "name": "operator",
          "type": "address"
        }
      ],
      "name": "isApprovedForAll",
      "outputs": [
        {
          "internalType": "bool",
          "name": "",
          "type": "bool"
        }
      ],
      "stateMutability": "view",
      "type": "function"
    },
    {
      "inputs": [
        {
          "internalType": "string",
          "name": "_postHash",
          "type": "string"
        }
      ],
      "name": "loadPost",
      "outputs": [],
      "stateMutability": "nonpayable",
      "type": "function"
    },
    {
      "inputs": [
        {
          "internalType": "string",
          "name": "_tokenURI",
          "type": "string"
        }
      ],
      "name": "mint",
      "outputs": [
        {
          "internalType": "uint256",
          "name": "",
          "type": "uint256"
        }
      ],
      "stateMutability": "nonpayable",
      "type": "function"
    },
    {
      "inputs": [],
      "name": "name",
      "outputs": [
        {
          "internalType": "string",
          "name": "",
          "type": "string"
        }
      ],
      "stateMutability": "view",
      "type": "function"
    },
    {
      "inputs": [
        {
          "internalType": "uint256",
          "name": "tokenId",
          "type": "uint256"
        }
      ],
      "name": "ownerOf",
      "outputs": [
        {
          "internalType": "address",
          "name": "",
          "type": "address"
        }
      ],
      "stateMutability": "view",
      "type": "function"
    },
    {
      "inputs": [],
      "name": "postCount",
      "outputs": [
        {
          "internalType": "uint256",
          "name": "",
          "type": "uint256"
        }
      ],
      "stateMutability": "view",
      "type": "function"
    },
    {
      "inputs": [
        {
          "internalType": "uint256",
          "name": "",
          "type": "uint256"
        }
      ],
      "name": "posts",
      "outputs": [
        {
          "internalType": "uint256",
          "name": "id",
          "type": "uint256"
        },
        {
          "internalType": "string",
          "name": "hash",
          "type": "string"
        },
        {
          "internalType": "uint256",
          "name": "tipAmount",
          "type": "uint256"
        },
        {
          "internalType": "address payable",
          "name": "author",
          "type": "address"
        }
      ],
      "stateMutability": "view",
      "type": "function"
    },
    {
      "inputs": [
        {
          "internalType": "address",
          "name": "",
          "type": "address"
        }
      ],
      "name": "profiles",
      "outputs": [
        {
          "internalType": "uint256",
          "name": "",
          "type": "uint256"
        }
      ],
      "stateMutability": "view",
      "type": "function"
    },
    {
      "inputs": [
        {
          "internalType": "address",
          "name": "from",
          "type": "address"
        },
        {
          "internalType": "address",
          "name": "to",
          "type": "address"
        },
        {
          "internalType": "uint256",
          "name": "tokenId",
          "type": "uint256"
        }
      ],
      "name": "safeTransferFrom",
      "outputs": [],
      "stateMutability": "nonpayable",
      "type": "function"
    },
    {
      "inputs": [
        {
          "internalType": "address",
          "name": "from",
          "type": "address"
        },
        {
          "internalType": "address",
          "name": "to",
          "type": "address"
        },
        {
          "internalType": "uint256",
          "name": "tokenId",
          "type": "uint256"
        },
        {
          "internalType": "bytes",
          "name": "data",
          "type": "bytes"
        }
      ],
      "name": "safeTransferFrom",
      "outputs": [],
      "stateMutability": "nonpayable",
      "type": "function"
    },
    {
      "inputs": [
        {
          "internalType": "address",
          "name": "operator",
          "type": "address"
        },
        {
          "internalType": "bool",
          "name": "approved",
          "type": "bool"
        }
      ],
      "name": "setApprovalForAll",
      "outputs": [],
      "stateMutability": "nonpayable",
      "type": "function"
    },
    {
      "inputs": [
        {
          "internalType": "uint256",
          "name": "_id",
          "type": "uint256"
        }
      ],
      "name": "setProfile",
      "outputs": [],
      "stateMutability": "nonpayable",
      "type": "function"
    },
    {
      "inputs": [
        {
          "internalType": "bytes4",
          "name": "interfaceId",
          "type": "bytes4"
        }
      ],
      "name": "supportsInterface",
      "outputs": [
        {
          "internalType": "bool",
          "name": "",
          "type": "bool"
        }
      ],
      "stateMutability": "view",
      "type": "function"
    },
    {
      "inputs": [],
      "name": "symbol",
      "outputs": [
        {
          "internalType": "string",
          "name": "",
          "type": "string"
        }
      ],
      "stateMutability": "view",
      "type": "function"
    },
    {
      "inputs": [
        {
          "internalType": "uint256",
          "name": "_id",
          "type": "uint256"
        }
      ],
      "name": "tipPostOwner",
      "outputs": [],
      "stateMutability": "payable",
      "type": "function"
    },
    {
      "inputs": [],
      "name": "tokenCount",
      "outputs": [
        {
          "internalType": "uint256",
          "name": "",
          "type": "uint256"
        }
      ],
      "stateMutability": "view",
      "type": "function"
    },
    {
      "inputs": [
        {
          "internalType": "uint256",
          "name": "tokenId",
          "type": "uint256"
        }
      ],
      "name": "tokenURI",
      "outputs": [
        {
          "internalType": "string",
          "name": "",
          "type": "string"
        }
      ],
      "stateMutability": "view",
      "type": "function"
    },
    {
      "inputs": [
        {
          "internalType": "address",
          "name": "from",
          "type": "address"
        },
        {
          "internalType": "address",
          "name": "to",
          "type": "address"
        },
        {
          "internalType": "uint256",
          "name": "tokenId",
          "type": "uint256"
        }
      ],
      "name": "transferFrom",
      "outputs": [],
      "stateMutability": "nonpayable",
      "type": "function"
    }
  ],
  "bytecode": "0x60806040523480156200001157600080fd5b506040518060400160405280600f81526020017f446563656e7472617477697474657200000000000000000000000000000000008152506040518060400160405280600481526020017f4441505000000000000000000000000000000000000000000000000000000000815250816000908051906020019062000096929190620000b8565b508060019080519060200190620000af929190620000b8565b505050620001cd565b828054620000c69062000168565b90600052602060002090601f016020900481019282620000ea576000855562000136565b82601f106200010557805160ff191683800117855562000136565b8280016001018555821562000136579182015b828111156200013557825182559160200191906001019062000118565b5b50905062000145919062000149565b5090565b5b80821115620001645760008160009055506001016200014a565b5090565b600060028204905060018216806200018157607f821691505b602082108114156200019857620001976200019e565b5b50919050565b7f4e487b7100000000000000000000000000000000000000000000000000000000600052602260045260246000fd5b613ac280620001dd6000396000f3fe6080604052600436106101405760003560e01c80636c1d4396116100b6578063b88d4fde1161006f578063b88d4fde14610471578063bbe156271461049a578063c87b56dd146104d7578063d6313c0614610514578063d85d3d2714610530578063e985e9c51461056d57610140565b80636c1d43961461036357806370a082311461038c57806385d3cb37146103c957806395d89b41146103f25780639f181b5e1461041d578063a22cb4651461044857610140565b80630b1e7f83116101085780630b1e7f831461023e57806317906c2e1461027e57806323b872dd146102a957806330561100146102d257806342842e0e146102fd5780636352211e1461032657610140565b806301ffc9a714610145578063047b07bf1461018257806306fdde03146101ad578063081812fc146101d8578063095ea7b314610215575b600080fd5b34801561015157600080fd5b5061016c600480360381019061016791906127da565b6105aa565b6040516101799190612e5f565b60405180910390f35b34801561018e57600080fd5b5061019761068c565b6040516101a49190612e3d565b60405180910390f35b3480156101b957600080fd5b506101c26107dc565b6040516101cf9190612e7a565b60405180910390f35b3480156101e457600080fd5b506101ff60048036038101906101fa919061286d565b61086e565b60405161020c9190612db4565b60405180910390f35b34801561022157600080fd5b5061023c6004803603810190610237919061279e565b6108b4565b005b34801561024a57600080fd5b506102656004803603810190610260919061286d565b6109cc565b6040516102759493929190613123565b60405180910390f35b34801561028a57600080fd5b50610293610aa4565b6040516102a091906130bc565b60405180910390f35b3480156102b557600080fd5b506102d060048036038101906102cb9190612698565b610aaa565b005b3480156102de57600080fd5b506102e7610b0a565b6040516102f49190612e1b565b60405180910390f35b34801561030957600080fd5b50610324600480360381019061031f9190612698565b610d17565b005b34801561033257600080fd5b5061034d6004803603810190610348919061286d565b610d37565b60405161035a9190612db4565b60405180910390f35b34801561036f57600080fd5b5061038a6004803603810190610385919061282c565b610de9565b005b34801561039857600080fd5b506103b360048036038101906103ae9190612633565b610f9d565b6040516103c091906130bc565b60405180910390f35b3480156103d557600080fd5b506103f060048036038101906103eb919061286d565b611055565b005b3480156103fe57600080fd5b50610407611112565b6040516104149190612e7a565b60405180910390f35b34801561042957600080fd5b506104326111a4565b60405161043f91906130bc565b60405180910390f35b34801561045457600080fd5b5061046f600480360381019061046a9190612762565b6111aa565b005b34801561047d57600080fd5b50610498600480360381019061049391906126e7565b6111c0565b005b3480156104a657600080fd5b506104c160048036038101906104bc9190612633565b611222565b6040516104ce91906130bc565b60405180910390f35b3480156104e357600080fd5b506104fe60048036038101906104f9919061286d565b61123a565b60405161050b9190612e7a565b60405180910390f35b61052e6004803603810190610529919061286d565b61134d565b005b34801561053c57600080fd5b506105576004803603810190610552919061282c565b6115e0565b60405161056491906130bc565b60405180910390f35b34801561057957600080fd5b50610594600480360381019061058f919061265c565b611627565b6040516105a19190612e5f565b60405180910390f35b60007f80ac58cd000000000000000000000000000000000000000000000000000000007bffffffffffffffffffffffffffffffffffffffffffffffffffffffff1916827bffffffffffffffffffffffffffffffffffffffffffffffffffffffff1916148061067557507f5b5e139f000000000000000000000000000000000000000000000000000000007bffffffffffffffffffffffffffffffffffffffffffffffffffffffff1916827bffffffffffffffffffffffffffffffffffffffffffffffffffffffff1916145b806106855750610684826116bb565b5b9050919050565b606061069733610f9d565b67ffffffffffffffff8111156106d6577f4e487b7100000000000000000000000000000000000000000000000000000000600052604160045260246000fd5b6040519080825280602002602001820160405280156107045781602001602082028036833780820191505090505b509050600080600754905060005b818110156107d6573373ffffffffffffffffffffffffffffffffffffffff1661074660018361074191906132bc565b610d37565b73ffffffffffffffffffffffffffffffffffffffff1614156107c35760018161076f91906132bc565b8484815181106107a8577f4e487b7100000000000000000000000000000000000000000000000000000000600052603260045260246000fd5b60200260200101818152505082806107bf906134b4565b9350505b80806107ce906134b4565b915050610712565b50505090565b6060600080546107eb90613451565b80601f016020809104026020016040519081016040528092919081815260200182805461081790613451565b80156108645780601f1061083957610100808354040283529160200191610864565b820191906000526020600020905b81548152906001019060200180831161084757829003601f168201915b5050505050905090565b600061087982611725565b6004600083815260200190815260200160002060009054906101000a900473ffffffffffffffffffffffffffffffffffffffff169050919050565b60006108bf82610d37565b90508073ffffffffffffffffffffffffffffffffffffffff168373ffffffffffffffffffffffffffffffffffffffff161415610930576040517f08c379a00000000000000000000000000000000000000000000000000000000081526004016109279061305c565b60405180910390fd5b8073ffffffffffffffffffffffffffffffffffffffff1661094f611770565b73ffffffffffffffffffffffffffffffffffffffff16148061097e575061097d81610978611770565b611627565b5b6109bd576040517f08c379a00000000000000000000000000000000000000000000000000000000081526004016109b490612fdc565b60405180910390fd5b6109c78383611778565b505050565b60096020528060005260406000206000915090508060000154908060010180546109f590613451565b80601f0160208091040260200160405190810160405280929190818152602001828054610a2190613451565b8015610a6e5780601f10610a4357610100808354040283529160200191610a6e565b820191906000526020600020905b815481529060010190602001808311610a5157829003601f168201915b5050505050908060020154908060030160009054906101000a900473ffffffffffffffffffffffffffffffffffffffff16905084565b60085481565b610abb610ab5611770565b82611831565b610afa576040517f08c379a0000000000000000000000000000000000000000000000000000000008152600401610af19061309c565b60405180910390fd5b610b058383836118c6565b505050565b606060085467ffffffffffffffff811115610b4e577f4e487b7100000000000000000000000000000000000000000000000000000000600052604160045260246000fd5b604051908082528060200260200182016040528015610b8757816020015b610b74612419565b815260200190600190039081610b6c5790505b50905060005b8151811015610d135760096000600183610ba791906132bc565b815260200190815260200160002060405180608001604052908160008201548152602001600182018054610bda90613451565b80601f0160208091040260200160405190810160405280929190818152602001828054610c0690613451565b8015610c535780601f10610c2857610100808354040283529160200191610c53565b820191906000526020600020905b815481529060010190602001808311610c3657829003601f168201915b50505050508152602001600282015481526020016003820160009054906101000a900473ffffffffffffffffffffffffffffffffffffffff1673ffffffffffffffffffffffffffffffffffffffff1673ffffffffffffffffffffffffffffffffffffffff1681525050828281518110610cf5577f4e487b7100000000000000000000000000000000000000000000000000000000600052603260045260246000fd5b60200260200101819052508080610d0b906134b4565b915050610b8d565b5090565b610d32838383604051806020016040528060008152506111c0565b505050565b6000806002600084815260200190815260200160002060009054906101000a900473ffffffffffffffffffffffffffffffffffffffff169050600073ffffffffffffffffffffffffffffffffffffffff168173ffffffffffffffffffffffffffffffffffffffff161415610de0576040517f08c379a0000000000000000000000000000000000000000000000000000000008152600401610dd79061303c565b60405180910390fd5b80915050919050565b6000610df433610f9d565b11610e34576040517f08c379a0000000000000000000000000000000000000000000000000000000008152600401610e2b90612e9c565b60405180910390fd5b6000815111610e78576040517f08c379a0000000000000000000000000000000000000000000000000000000008152600401610e6f9061301c565b60405180910390fd5b60076000815480929190610e8b906134b4565b919050555060405180608001604052806008548152602001828152602001600081526020013373ffffffffffffffffffffffffffffffffffffffff16815250600960006008548152602001908152602001600020600082015181600001556020820151816001019080519060200190610f05929190612457565b506040820151816002015560608201518160030160006101000a81548173ffffffffffffffffffffffffffffffffffffffff021916908373ffffffffffffffffffffffffffffffffffffffff1602179055509050507fc66336337a24e513f909b3b25119854dba8385d51307dbc7d31d1b2805e19c7e60085482600033604051610f9294939291906130d7565b60405180910390a150565b60008073ffffffffffffffffffffffffffffffffffffffff168273ffffffffffffffffffffffffffffffffffffffff16141561100e576040517f08c379a000000000000000000000000000000000000000000000000000000000815260040161100590612f9c565b60405180910390fd5b600360008373ffffffffffffffffffffffffffffffffffffffff1673ffffffffffffffffffffffffffffffffffffffff168152602001908152602001600020549050919050565b3373ffffffffffffffffffffffffffffffffffffffff1661107582610d37565b73ffffffffffffffffffffffffffffffffffffffff16146110cb576040517f08c379a00000000000000000000000000000000000000000000000000000000081526004016110c290612f5c565b60405180910390fd5b80600a60003373ffffffffffffffffffffffffffffffffffffffff1673ffffffffffffffffffffffffffffffffffffffff1681526020019081526020016000208190555050565b60606001805461112190613451565b80601f016020809104026020016040519081016040528092919081815260200182805461114d90613451565b801561119a5780601f1061116f5761010080835404028352916020019161119a565b820191906000526020600020905b81548152906001019060200180831161117d57829003601f168201915b5050505050905090565b60075481565b6111bc6111b5611770565b8383611b2d565b5050565b6111d16111cb611770565b83611831565b611210576040517f08c379a00000000000000000000000000000000000000000000000000000000081526004016112079061309c565b60405180910390fd5b61121c84848484611c9a565b50505050565b600a6020528060005260406000206000915090505481565b606061124582611725565b600060066000848152602001908152602001600020805461126590613451565b80601f016020809104026020016040519081016040528092919081815260200182805461129190613451565b80156112de5780601f106112b3576101008083540402835291602001916112de565b820191906000526020600020905b8154815290600101906020018083116112c157829003601f168201915b5050505050905060006112ef611cf6565b9050600081511415611305578192505050611348565b60008251111561133a578082604051602001611322929190612d90565b60405160208183030381529060405292505050611348565b61134384611d0d565b925050505b919050565b60008111801561135f57506008548111155b61139e576040517f08c379a000000000000000000000000000000000000000000000000000000000815260040161139590612f7c565b60405180910390fd5b600060096000838152602001908152602001600020604051806080016040529081600082015481526020016001820180546113d890613451565b80601f016020809104026020016040519081016040528092919081815260200182805461140490613451565b80156114515780601f1061142657610100808354040283529160200191611451565b820191906000526020600020905b81548152906001019060200180831161143457829003601f168201915b50505050508152602001600282015481526020016003820160009054906101000a900473ffffffffffffffffffffffffffffffffffffffff1673ffffffffffffffffffffffffffffffffffffffff1673ffffffffffffffffffffffffffffffffffffffff168152505090503373ffffffffffffffffffffffffffffffffffffffff16816060015173ffffffffffffffffffffffffffffffffffffffff16141561152f576040517f08c379a00000000000000000000000000000000000000000000000000000000081526004016115269061307c565b60405180910390fd5b806060015173ffffffffffffffffffffffffffffffffffffffff166108fc349081150290604051600060405180830381858888f19350505050158015611579573d6000803e3d6000fd5b50348160400181815161158c91906132bc565b915081815250507f20988fe475351e75813672abada1dddb7ac67cbbeb81e61e1160b8329d8cdf1c828260200151836040015184606001516040516115d49493929190613123565b60405180910390a15050565b6000600760008154809291906115f5906134b4565b919050555061160633600754611d75565b61161260075483611d93565b61161d600754611055565b6007549050919050565b6000600560008473ffffffffffffffffffffffffffffffffffffffff1673ffffffffffffffffffffffffffffffffffffffff16815260200190815260200160002060008373ffffffffffffffffffffffffffffffffffffffff1673ffffffffffffffffffffffffffffffffffffffff16815260200190815260200160002060009054906101000a900460ff16905092915050565b60007f01ffc9a7000000000000000000000000000000000000000000000000000000007bffffffffffffffffffffffffffffffffffffffffffffffffffffffff1916827bffffffffffffffffffffffffffffffffffffffffffffffffffffffff1916149050919050565b61172e81611e07565b61176d576040517f08c379a00000000000000000000000000000000000000000000000000000000081526004016117649061303c565b60405180910390fd5b50565b600033905090565b816004600083815260200190815260200160002060006101000a81548173ffffffffffffffffffffffffffffffffffffffff021916908373ffffffffffffffffffffffffffffffffffffffff160217905550808273ffffffffffffffffffffffffffffffffffffffff166117eb83610d37565b73ffffffffffffffffffffffffffffffffffffffff167f8c5be1e5ebec7d5bd14f71427d1e84f3dd0314c0f7b2291e5b200ac8c7c3b92560405160405180910390a45050565b60008061183d83610d37565b90508073ffffffffffffffffffffffffffffffffffffffff168473ffffffffffffffffffffffffffffffffffffffff16148061187f575061187e8185611627565b5b806118bd57508373ffffffffffffffffffffffffffffffffffffffff166118a58461086e565b73ffffffffffffffffffffffffffffffffffffffff16145b91505092915050565b8273ffffffffffffffffffffffffffffffffffffffff166118e682610d37565b73ffffffffffffffffffffffffffffffffffffffff161461193c576040517f08c379a000000000000000000000000000000000000000000000000000000000815260040161193390612edc565b60405180910390fd5b600073ffffffffffffffffffffffffffffffffffffffff168273ffffffffffffffffffffffffffffffffffffffff1614156119ac576040517f08c379a00000000000000000000000000000000000000000000000000000000081526004016119a390612f1c565b60405180910390fd5b6119b7838383611e73565b6119c2600082611778565b6001600360008573ffffffffffffffffffffffffffffffffffffffff1673ffffffffffffffffffffffffffffffffffffffff1681526020019081526020016000206000828254611a129190613343565b925050819055506001600360008473ffffffffffffffffffffffffffffffffffffffff1673ffffffffffffffffffffffffffffffffffffffff1681526020019081526020016000206000828254611a6991906132bc565b92505081905550816002600083815260200190815260200160002060006101000a81548173ffffffffffffffffffffffffffffffffffffffff021916908373ffffffffffffffffffffffffffffffffffffffff160217905550808273ffffffffffffffffffffffffffffffffffffffff168473ffffffffffffffffffffffffffffffffffffffff167fddf252ad1be2c89b69c2b068fc378daa952ba7f163c4a11628f55a4df523b3ef60405160405180910390a4611b28838383611e78565b505050565b8173ffffffffffffffffffffffffffffffffffffffff168373ffffffffffffffffffffffffffffffffffffffff161415611b9c576040517f08c379a0000000000000000000000000000000000000000000000000000000008152600401611b9390612f3c565b60405180910390fd5b80600560008573ffffffffffffffffffffffffffffffffffffffff1673ffffffffffffffffffffffffffffffffffffffff16815260200190815260200160002060008473ffffffffffffffffffffffffffffffffffffffff1673ffffffffffffffffffffffffffffffffffffffff16815260200190815260200160002060006101000a81548160ff0219169083151502179055508173ffffffffffffffffffffffffffffffffffffffff168373ffffffffffffffffffffffffffffffffffffffff167f17307eab39ab6107e8899845ad3d59bd9653f200f220920489ca2b5937696c3183604051611c8d9190612e5f565b60405180910390a3505050565b611ca58484846118c6565b611cb184848484611e7d565b611cf0576040517f08c379a0000000000000000000000000000000000000000000000000000000008152600401611ce790612ebc565b60405180910390fd5b50505050565b606060405180602001604052806000815250905090565b6060611d1882611725565b6000611d22611cf6565b90506000815111611d425760405180602001604052806000815250611d6d565b80611d4c84612014565b604051602001611d5d929190612d90565b6040516020818303038152906040525b915050919050565b611d8f8282604051806020016040528060008152506121c1565b5050565b611d9c82611e07565b611ddb576040517f08c379a0000000000000000000000000000000000000000000000000000000008152600401611dd290612fbc565b60405180910390fd5b80600660008481526020019081526020016000209080519060200190611e02929190612457565b505050565b60008073ffffffffffffffffffffffffffffffffffffffff166002600084815260200190815260200160002060009054906101000a900473ffffffffffffffffffffffffffffffffffffffff1673ffffffffffffffffffffffffffffffffffffffff1614159050919050565b505050565b505050565b6000611e9e8473ffffffffffffffffffffffffffffffffffffffff1661221c565b15612007578373ffffffffffffffffffffffffffffffffffffffff1663150b7a02611ec7611770565b8786866040518563ffffffff1660e01b8152600401611ee99493929190612dcf565b602060405180830381600087803b158015611f0357600080fd5b505af1925050508015611f3457506040513d601f19601f82011682018060405250810190611f319190612803565b60015b611fb7573d8060008114611f64576040519150601f19603f3d011682016040523d82523d6000602084013e611f69565b606091505b50600081511415611faf576040517f08c379a0000000000000000000000000000000000000000000000000000000008152600401611fa690612ebc565b60405180910390fd5b805181602001fd5b63150b7a0260e01b7bffffffffffffffffffffffffffffffffffffffffffffffffffffffff1916817bffffffffffffffffffffffffffffffffffffffffffffffffffffffff19161491505061200c565b600190505b949350505050565b6060600082141561205c576040518060400160405280600181526020017f300000000000000000000000000000000000000000000000000000000000000081525090506121bc565b600082905060005b6000821461208e578080612077906134b4565b915050600a826120879190613312565b9150612064565b60008167ffffffffffffffff8111156120d0577f4e487b7100000000000000000000000000000000000000000000000000000000600052604160045260246000fd5b6040519080825280601f01601f1916602001820160405280156121025781602001600182028036833780820191505090505b5090505b600085146121b55760018261211b9190613343565b9150600a8561212a91906134fd565b603061213691906132bc565b60f81b818381518110612172577f4e487b7100000000000000000000000000000000000000000000000000000000600052603260045260246000fd5b60200101907effffffffffffffffffffffffffffffffffffffffffffffffffffffffffffff1916908160001a905350600a856121ae9190613312565b9450612106565b8093505050505b919050565b6121cb838361223f565b6121d86000848484611e7d565b612217576040517f08c379a000000000000000000000000000000000000000000000000000000000815260040161220e90612ebc565b60405180910390fd5b505050565b6000808273ffffffffffffffffffffffffffffffffffffffff163b119050919050565b600073ffffffffffffffffffffffffffffffffffffffff168273ffffffffffffffffffffffffffffffffffffffff1614156122af576040517f08c379a00000000000000000000000000000000000000000000000000000000081526004016122a690612ffc565b60405180910390fd5b6122b881611e07565b156122f8576040517f08c379a00000000000000000000000000000000000000000000000000000000081526004016122ef90612efc565b60405180910390fd5b61230460008383611e73565b6001600360008473ffffffffffffffffffffffffffffffffffffffff1673ffffffffffffffffffffffffffffffffffffffff168152602001908152602001600020600082825461235491906132bc565b92505081905550816002600083815260200190815260200160002060006101000a81548173ffffffffffffffffffffffffffffffffffffffff021916908373ffffffffffffffffffffffffffffffffffffffff160217905550808273ffffffffffffffffffffffffffffffffffffffff16600073ffffffffffffffffffffffffffffffffffffffff167fddf252ad1be2c89b69c2b068fc378daa952ba7f163c4a11628f55a4df523b3ef60405160405180910390a461241560008383611e78565b5050565b6040518060800160405280600081526020016060815260200160008152602001600073ffffffffffffffffffffffffffffffffffffffff1681525090565b82805461246390613451565b90600052602060002090601f01602090048101928261248557600085556124cc565b82601f1061249e57805160ff19168380011785556124cc565b828001600101855582156124cc579182015b828111156124cb5782518255916020019190600101906124b0565b5b5090506124d991906124dd565b5090565b5b808211156124f65760008160009055506001016124de565b5090565b600061250d61250884613194565b61316f565b90508281526020810184848401111561252557600080fd5b61253084828561340f565b509392505050565b600061254b612546846131c5565b61316f565b90508281526020810184848401111561256357600080fd5b61256e84828561340f565b509392505050565b60008135905061258581613a30565b92915050565b60008135905061259a81613a47565b92915050565b6000813590506125af81613a5e565b92915050565b6000815190506125c481613a5e565b92915050565b600082601f8301126125db57600080fd5b81356125eb8482602086016124fa565b91505092915050565b600082601f83011261260557600080fd5b8135612615848260208601612538565b91505092915050565b60008135905061262d81613a75565b92915050565b60006020828403121561264557600080fd5b600061265384828501612576565b91505092915050565b6000806040838503121561266f57600080fd5b600061267d85828601612576565b925050602061268e85828601612576565b9150509250929050565b6000806000606084860312156126ad57600080fd5b60006126bb86828701612576565b93505060206126cc86828701612576565b92505060406126dd8682870161261e565b9150509250925092565b600080600080608085870312156126fd57600080fd5b600061270b87828801612576565b945050602061271c87828801612576565b935050604061272d8782880161261e565b925050606085013567ffffffffffffffff81111561274a57600080fd5b612756878288016125ca565b91505092959194509250565b6000806040838503121561277557600080fd5b600061278385828601612576565b92505060206127948582860161258b565b9150509250929050565b600080604083850312156127b157600080fd5b60006127bf85828601612576565b92505060206127d08582860161261e565b9150509250929050565b6000602082840312156127ec57600080fd5b60006127fa848285016125a0565b91505092915050565b60006020828403121561281557600080fd5b6000612823848285016125b5565b91505092915050565b60006020828403121561283e57600080fd5b600082013567ffffffffffffffff81111561285857600080fd5b612864848285016125f4565b91505092915050565b60006020828403121561287f57600080fd5b600061288d8482850161261e565b91505092915050565b60006128a28383612d0f565b905092915050565b60006128b68383612d72565b60208301905092915050565b6128cb81613389565b82525050565b6128da81613389565b82525050565b6128e981613377565b82525050565b60006128fa82613216565b612904818561325c565b935083602082028501612916856131f6565b8060005b8581101561295257848403895281516129338582612896565b945061293e83613242565b925060208a0199505060018101905061291a565b50829750879550505050505092915050565b600061296f82613221565b612979818561326d565b935061298483613206565b8060005b838110156129b557815161299c88826128aa565b97506129a78361324f565b925050600181019050612988565b5085935050505092915050565b6129cb8161339b565b82525050565b60006129dc8261322c565b6129e6818561327e565b93506129f681856020860161341e565b6129ff816135ea565b840191505092915050565b612a13816133fd565b82525050565b6000612a2482613237565b612a2e818561328f565b9350612a3e81856020860161341e565b612a47816135ea565b840191505092915050565b6000612a5d82613237565b612a6781856132a0565b9350612a7781856020860161341e565b612a80816135ea565b840191505092915050565b6000612a9682613237565b612aa081856132b1565b9350612ab081856020860161341e565b80840191505092915050565b6000612ac96022836132a0565b9150612ad4826135fb565b604082019050919050565b6000612aec6032836132a0565b9150612af78261364a565b604082019050919050565b6000612b0f6025836132a0565b9150612b1a82613699565b604082019050919050565b6000612b32601c836132a0565b9150612b3d826136e8565b602082019050919050565b6000612b556024836132a0565b9150612b6082613711565b604082019050919050565b6000612b786019836132a0565b9150612b8382613760565b602082019050919050565b6000612b9b6033836132a0565b9150612ba682613789565b604082019050919050565b6000612bbe600f836132a0565b9150612bc9826137d8565b602082019050919050565b6000612be16029836132a0565b9150612bec82613801565b604082019050919050565b6000612c04602e836132a0565b9150612c0f82613850565b604082019050919050565b6000612c27603e836132a0565b9150612c328261389f565b604082019050919050565b6000612c4a6020836132a0565b9150612c55826138ee565b602082019050919050565b6000612c6d6019836132a0565b9150612c7882613917565b602082019050919050565b6000612c906018836132a0565b9150612c9b82613940565b602082019050919050565b6000612cb36021836132a0565b9150612cbe82613969565b604082019050919050565b6000612cd66018836132a0565b9150612ce1826139b8565b602082019050919050565b6000612cf9602e836132a0565b9150612d04826139e1565b604082019050919050565b6000608083016000830151612d276000860182612d72565b5060208301518482036020860152612d3f8282612a19565b9150506040830151612d546040860182612d72565b506060830151612d6760608601826128c2565b508091505092915050565b612d7b816133f3565b82525050565b612d8a816133f3565b82525050565b6000612d9c8285612a8b565b9150612da88284612a8b565b91508190509392505050565b6000602082019050612dc960008301846128e0565b92915050565b6000608082019050612de460008301876128e0565b612df160208301866128e0565b612dfe6040830185612d81565b8181036060830152612e1081846129d1565b905095945050505050565b60006020820190508181036000830152612e3581846128ef565b905092915050565b60006020820190508181036000830152612e578184612964565b905092915050565b6000602082019050612e7460008301846129c2565b92915050565b60006020820190508181036000830152612e948184612a52565b905092915050565b60006020820190508181036000830152612eb581612abc565b9050919050565b60006020820190508181036000830152612ed581612adf565b9050919050565b60006020820190508181036000830152612ef581612b02565b9050919050565b60006020820190508181036000830152612f1581612b25565b9050919050565b60006020820190508181036000830152612f3581612b48565b9050919050565b60006020820190508181036000830152612f5581612b6b565b9050919050565b60006020820190508181036000830152612f7581612b8e565b9050919050565b60006020820190508181036000830152612f9581612bb1565b9050919050565b60006020820190508181036000830152612fb581612bd4565b9050919050565b60006020820190508181036000830152612fd581612bf7565b9050919050565b60006020820190508181036000830152612ff581612c1a565b9050919050565b6000602082019050818103600083015261301581612c3d565b9050919050565b6000602082019050818103600083015261303581612c60565b9050919050565b6000602082019050818103600083015261305581612c83565b9050919050565b6000602082019050818103600083015261307581612ca6565b9050919050565b6000602082019050818103600083015261309581612cc9565b9050919050565b600060208201905081810360008301526130b581612cec565b9050919050565b60006020820190506130d16000830184612d81565b92915050565b60006080820190506130ec6000830187612d81565b81810360208301526130fe8186612a52565b905061310d6040830185612a0a565b61311a60608301846128d1565b95945050505050565b60006080820190506131386000830187612d81565b818103602083015261314a8186612a52565b90506131596040830185612d81565b61316660608301846128d1565b95945050505050565b600061317961318a565b90506131858282613483565b919050565b6000604051905090565b600067ffffffffffffffff8211156131af576131ae6135bb565b5b6131b8826135ea565b9050602081019050919050565b600067ffffffffffffffff8211156131e0576131df6135bb565b5b6131e9826135ea565b9050602081019050919050565b6000819050602082019050919050565b6000819050602082019050919050565b600081519050919050565b600081519050919050565b600081519050919050565b600081519050919050565b6000602082019050919050565b6000602082019050919050565b600082825260208201905092915050565b600082825260208201905092915050565b600082825260208201905092915050565b600082825260208201905092915050565b600082825260208201905092915050565b600081905092915050565b60006132c7826133f3565b91506132d2836133f3565b9250827fffffffffffffffffffffffffffffffffffffffffffffffffffffffffffffffff038211156133075761330661352e565b5b828201905092915050565b600061331d826133f3565b9150613328836133f3565b9250826133385761333761355d565b5b828204905092915050565b600061334e826133f3565b9150613359836133f3565b92508282101561336c5761336b61352e565b5b828203905092915050565b6000613382826133d3565b9050919050565b6000613394826133d3565b9050919050565b60008115159050919050565b60007fffffffff0000000000000000000000000000000000000000000000000000000082169050919050565b600073ffffffffffffffffffffffffffffffffffffffff82169050919050565b6000819050919050565b6000613408826133f3565b9050919050565b82818337600083830152505050565b60005b8381101561343c578082015181840152602081019050613421565b8381111561344b576000848401525b50505050565b6000600282049050600182168061346957607f821691505b6020821081141561347d5761347c61358c565b5b50919050565b61348c826135ea565b810181811067ffffffffffffffff821117156134ab576134aa6135bb565b5b80604052505050565b60006134bf826133f3565b91507fffffffffffffffffffffffffffffffffffffffffffffffffffffffffffffffff8214156134f2576134f161352e565b5b600182019050919050565b6000613508826133f3565b9150613513836133f3565b9250826135235761352261355d565b5b828206905092915050565b7f4e487b7100000000000000000000000000000000000000000000000000000000600052601160045260246000fd5b7f4e487b7100000000000000000000000000000000000000000000000000000000600052601260045260246000fd5b7f4e487b7100000000000000000000000000000000000000000000000000000000600052602260045260246000fd5b7f4e487b7100000000000000000000000000000000000000000000000000000000600052604160045260246000fd5b6000601f19601f8301169050919050565b7f4d757374206f776e206120646563656e7472617477697474657220746f20706f60008201527f7374000000000000000000000000000000000000000000000000000000000000602082015250565b7f4552433732313a207472616e7366657220746f206e6f6e20455243373231526560008201527f63656976657220696d706c656d656e7465720000000000000000000000000000602082015250565b7f4552433732313a207472616e736665722066726f6d20696e636f72726563742060008201527f6f776e6572000000000000000000000000000000000000000000000000000000602082015250565b7f4552433732313a20746f6b656e20616c7265616479206d696e74656400000000600082015250565b7f4552433732313a207472616e7366657220746f20746865207a65726f2061646460008201527f7265737300000000000000000000000000000000000000000000000000000000602082015250565b7f4552433732313a20617070726f766520746f2063616c6c657200000000000000600082015250565b7f4d757374206f776e20746865204e465420796f752077616e7420746f2073656c60008201527f65637420617320796f75722070726f66696c6500000000000000000000000000602082015250565b7f696e76616c696420706f73742049440000000000000000000000000000000000600082015250565b7f4552433732313a2061646472657373207a65726f206973206e6f74206120766160008201527f6c6964206f776e65720000000000000000000000000000000000000000000000602082015250565b7f45524337323155524953746f726167653a2055524920736574206f66206e6f6e60008201527f6578697374656e7420746f6b656e000000000000000000000000000000000000602082015250565b7f4552433732313a20617070726f76652063616c6c6572206973206e6f7420746f60008201527f6b656e206f776e6572206e6f7220617070726f76656420666f7220616c6c0000602082015250565b7f4552433732313a206d696e7420746f20746865207a65726f2061646472657373600082015250565b7f43616e6e6f74207061737320616e20656d707479206861736800000000000000600082015250565b7f4552433732313a20696e76616c696420746f6b656e2049440000000000000000600082015250565b7f4552433732313a20617070726f76616c20746f2063757272656e74206f776e6560008201527f7200000000000000000000000000000000000000000000000000000000000000602082015250565b7f43616e6e6f742074697020796f7572206f776e20706f73740000000000000000600082015250565b7f4552433732313a2063616c6c6572206973206e6f7420746f6b656e206f776e6560008201527f72206e6f7220617070726f766564000000000000000000000000000000000000602082015250565b613a3981613377565b8114613a4457600080fd5b50565b613a508161339b565b8114613a5b57600080fd5b50565b613a67816133a7565b8114613a7257600080fd5b50565b613a7e816133f3565b8114613a8957600080fd5b5056fea264697066735822122082012b1a11084e390f1f0a2b6cecd6ca3e6ee59eafab4d0395df7697f4a9c61e64736f6c63430008040033",
  "linkReferences": {},
  "deployedLinkReferences": {}
}